{"abi":[{"type":"constructor","inputs":[],"stateMutability":"nonpayable"},{"type":"function","name":"ATTEND","inputs":[],"outputs":[{"name":"","type":"uint256","internalType":"uint256"}],"stateMutability":"view"},{"type":"function","name":"HOST","inputs":[],"outputs":[{"name":"","type":"uint256","internalType":"uint256"}],"stateMutability":"view"},{"type":"function","name":"PACE","inputs":[],"outputs":[{"name":"","type":"uint256","internalType":"uint256"}],"stateMutability":"view"},{"type":"function","name":"SUPPLIES","inputs":[],"outputs":[{"name":"","type":"uint256","internalType":"uint256"}],"stateMutability":"view"},{"type":"function","name":"USDC","inputs":[],"outputs":[{"name":"","type":"address","internalType":"contract IERC20"}],"stateMutability":"view"},{"type":"function","name":"balanceOf","inputs":[{"name":"account","type":"address","internalType":"address"},{"name":"id","type":"uint256","internalType":"uint256"}],"outputs":[{"name":"","type":"uint256","internalType":"uint256"}],"stateMutability":"view"},{"type":"function","name":"balanceOfBatch","inputs":[{"name":"accounts","type":"address[]","internalType":"address[]"},{"name":"ids","type":"uint256[]","internalType":"uint256[]"}],"outputs":[{"name":"","type":"uint256[]","internalType":"uint256[]"}],"stateMutability":"view"},{"type":"function","name":"getUSDCAllowance","inputs":[{"name":"user","type":"address","internalType":"address"}],"outputs":[{"name":"","type":"uint256","internalType":"uint256"}],"stateMutability":"view"},{"type":"function","name":"getUserData","inputs":[{"name":"user","type":"address","internalType":"address"}],"outputs":[{"name":"contributions","type":"uint256[4]","internalType":"uint256[4]"},{"name":"stats","type":"tuple","internalType":"struct ContributionBadgesV2.UserStats","components":[{"name":"totalPoints","type":"uint256","internalType":"uint256"},{"name":"currentStreak","type":"uint256","internalType":"uint256"},{"name":"lastAttendDate","type":"string","internalType":"string"},{"name":"totalTipsReceived","type":"uint256","internalType":"uint256"},{"name":"totalTipsSent","type":"uint256","internalType":"uint256"}]},{"name":"badges","type":"string[]","internalType":"string[]"}],"stateMutability":"view"},{"type":"function","name":"isApprovedForAll","inputs":[{"name":"account","type":"address","internalType":"address"},{"name":"operator","type":"address","internalType":"address"}],"outputs":[{"name":"","type":"bool","internalType":"bool"}],"stateMutability":"view"},{"type":"function","name":"lastContribution","inputs":[{"name":"","type":"address","internalType":"address"},{"name":"","type":"uint256","internalType":"uint256"}],"outputs":[{"name":"","type":"string","internalType":"string"}],"stateMutability":"view"},{"type":"function","name":"makeContribution","inputs":[{"name":"contributionType","type":"uint256","internalType":"uint256"}],"outputs":[],"stateMutability":"nonpayable"},{"type":"function","name":"owner","inputs":[],"outputs":[{"name":"","type":"address","internalType":"address"}],"stateMutability":"view"},{"type":"function","name":"renounceOwnership","inputs":[],"outputs":[],"stateMutability":"nonpayable"},{"type":"function","name":"safeBatchTransferFrom","inputs":[{"name":"","type":"address","internalType":"address"},{"name":"","type":"address","internalType":"address"},{"name":"","type":"uint256[]","internalType":"uint256[]"},{"name":"","type":"uint256[]","internalType":"uint256[]"},{"name":"","type":"bytes","internalType":"bytes"}],"outputs":[],"stateMutability":"nonpayable"},{"type":"function","name":"safeTransferFrom","inputs":[{"name":"","type":"address","internalType":"address"},{"name":"","type":"address","internalType":"address"},{"name":"","type":"uint256","internalType":"uint256"},{"name":"","type":"uint256","internalType":"uint256"},{"name":"","type":"bytes","internalType":"bytes"}],"outputs":[],"stateMutability":"nonpayable"},{"type":"function","name":"setApprovalForAll","inputs":[{"name":"operator","type":"address","internalType":"address"},{"name":"approved","type":"bool","internalType":"bool"}],"outputs":[],"stateMutability":"nonpayable"},{"type":"function","name":"supportsInterface","inputs":[{"name":"interfaceId","type":"bytes4","internalType":"bytes4"}],"outputs":[{"name":"","type":"bool","internalType":"bool"}],"stateMutability":"view"},{"type":"function","name":"tipContributorUSDC","inputs":[{"name":"contributor","type":"address","internalType":"address"},{"name":"amount","type":"uint256","internalType":"uint256"},{"name":"message","type":"string","internalType":"string"}],"outputs":[],"stateMutability":"nonpayable"},{"type":"function","name":"transferOwnership","inputs":[{"name":"newOwner","type":"address","internalType":"address"}],"outputs":[],"stateMutability":"nonpayable"},{"type":"function","name":"unlockedBadges","inputs":[{"name":"","type":"address","internalType":"address"},{"name":"","type":"uint256","internalType":"uint256"}],"outputs":[{"name":"","type":"string","internalType":"string"}],"stateMutability":"view"},{"type":"function","name":"uri","inputs":[{"name":"","type":"uint256","internalType":"uint256"}],"outputs":[{"name":"","type":"string","internalType":"string"}],"stateMutability":"view"},{"type":"function","name":"userStats","inputs":[{"name":"","type":"address","internalType":"address"}],"outputs":[{"name":"totalPoints","type":"uint256","internalType":"uint256"},{"name":"currentStreak","type":"uint256","internalType":"uint256"},{"name":"lastAttendDate","type":"string","internalType":"string"},{"name":"totalTipsReceived","type":"uint256","internalType":"uint256"},{"name":"totalTipsSent","type":"uint256","internalType":"uint256"}],"stateMutability":"view"},{"type":"event","name":"ApprovalForAll","inputs":[{"name":"account","type":"address","indexed":true,"internalType":"address"},{"name":"operator","type":"address","indexed":true,"internalType":"address"},{"name":"approved","type":"bool","indexed":false,"internalType":"bool"}],"anonymous":false},{"type":"event","name":"BadgeUnlocked","inputs":[{"name":"user","type":"address","indexed":true,"internalType":"address"},{"name":"badgeName","type":"string","indexed":false,"internalType":"string"}],"anonymous":false},{"type":"event","name":"ContributionMade","inputs":[{"name":"user","type":"address","indexed":true,"internalType":"address"},{"name":"contributionType","type":"uint256","indexed":false,"internalType":"uint256"},{"name":"date","type":"string","indexed":false,"internalType":"string"},{"name":"newPoints","type":"uint256","indexed":false,"internalType":"uint256"},{"name":"newStreak","type":"uint256","indexed":false,"internalType":"uint256"}],"anonymous":false},{"type":"event","name":"OwnershipTransferred","inputs":[{"name":"previousOwner","type":"address","indexed":true,"internalType":"address"},{"name":"newOwner","type":"address","indexed":true,"internalType":"address"}],"anonymous":false},{"type":"event","name":"TipSent","inputs":[{"name":"from","type":"address","indexed":true,"internalType":"address"},{"name":"to","type":"address","indexed":true,"internalType":"address"},{"name":"amount","type":"uint256","indexed":false,"internalType":"uint256"},{"name":"message","type":"string","indexed":false,"internalType":"string"}],"anonymous":false},{"type":"event","name":"TransferBatch","inputs":[{"name":"operator","type":"address","indexed":true,"internalType":"address"},{"name":"from","type":"address","indexed":true,"internalType":"address"},{"name":"to","type":"address","indexed":true,"internalType":"address"},{"name":"ids","type":"uint256[]","indexed":false,"internalType":"uint256[]"},{"name":"values","type":"uint256[]","indexed":false,"internalType":"uint256[]"}],"anonymous":false},{"type":"event","name":"TransferSingle","inputs":[{"name":"operator","type":"address","indexed":true,"internalType":"address"},{"name":"from","type":"address","indexed":true,"internalType":"address"},{"name":"to","type":"address","indexed":true,"internalType":"address"},{"name":"id","type":"uint256","indexed":false,"internalType":"uint256"},{"name":"value","type":"uint256","indexed":false,"internalType":"uint256"}],"anonymous":false},{"type":"event","name":"URI","inputs":[{"name":"value","type":"string","indexed":false,"internalType":"string"},{"name":"id","type":"uint256","indexed":true,"internalType":"uint256"}],"anonymous":false},{"type":"error","name":"ERC1155InsufficientBalance","inputs":[{"name":"sender","type":"address","internalType":"address"},{"name":"balance","type":"uint256","internalType":"uint256"},{"name":"needed","type":"uint256","internalType":"uint256"},{"name":"tokenId","type":"uint256","internalType":"uint256"}]},{"type":"error","name":"ERC1155InvalidApprover","inputs":[{"name":"approver","type":"address","internalType":"address"}]},{"type":"error","name":"ERC1155InvalidArrayLength","inputs":[{"name":"idsLength","type":"uint256","internalType":"uint256"},{"name":"valuesLength","type":"uint256","internalType":"uint256"}]},{"type":"error","name":"ERC1155InvalidOperator","inputs":[{"name":"operator","type":"address","internalType":"address"}]},{"type":"error","name":"ERC1155InvalidReceiver","inputs":[{"name":"receiver","type":"address","internalType":"address"}]},{"type":"error","name":"ERC1155InvalidSender","inputs":[{"name":"sender","type":"address","internalType":"address"}]},{"type":"error","name":"ERC1155MissingApprovalForAll","inputs":[{"name":"operator","type":"address","internalType":"address"},{"name":"owner","type":"address","internalType":"address"}]},{"type":"error","name":"InsufficientUSDCAllowance","inputs":[]},{"type":"error","name":"NonTransferable","inputs":[]},{"type":"error","name":"OwnableInvalidOwner","inputs":[{"name":"owner","type":"address","internalType":"address"}]},{"type":"error","name":"OwnableUnauthorizedAccount","inputs":[{"name":"account","type":"address","internalType":"address"}]},{"type":"error","name":"USDCTransferFailed","inputs":[]}],"bytecode":{"object":"0x608060405234801562000010575f80fd5b50336040518060600160405280602e81526020016200289f602e9139620000378162000078565b506001600160a01b0381166200006657604051631e4fbdf760e01b81525f600482015260240160405180910390fd5b62000071816200008a565b5062000245565b600262000086828262000179565b5050565b600380546001600160a01b038381166001600160a01b0319831681179093556040519116919082907f8be0079c531659141344cd1fd0a4f28419497f9722a3daafe3b4186f6b6457e0905f90a35050565b634e487b7160e01b5f52604160045260245ffd5b600181811c908216806200010457607f821691505b6020821081036200012357634e487b7160e01b5f52602260045260245ffd5b50919050565b601f8211156200017457805f5260205f20601f840160051c81016020851015620001505750805b601f840160051c820191505b8181101562000171575f81556001016200015c565b50505b505050565b81516001600160401b03811115620001955762000195620000db565b620001ad81620001a68454620000ef565b8462000129565b602080601f831160018114620001e3575f8415620001cb5750858301515b5f19600386901b1c1916600185901b1785556200023d565b5f85815260208120601f198616915b828110156200021357888601518255948401946001909101908401620001f2565b50858210156200023157878501515f19600388901b60f8161c191681555b505060018460011b0185555b505050505050565b61264c80620002535f395ff3fe608060405234801561000f575f80fd5b5060043610610147575f3560e01c806389a30271116100bf578063e288c41711610079578063e288c417146102c5578063e985e9c5146102d8578063f242432a14610313578063f2f69a9014610321578063f2fde38b14610334578063ffc9896b14610347575f80fd5b806389a302711461022f5780638a65d874146102625780638da5cb5b1461028657806397c10577146102975780639c694a73146102aa578063a22cb465146102b2575f80fd5b80632eb2c2d6116101105780632eb2c2d6146101cf578063360a2bcb146101e457806349f289dc146101f75780634e1273f4146101ff57806357e1d9b01461021f578063715018a614610227575f80fd5b8062fdd58e1461014b57806301ffc9a7146101715780630e89341c1461019457806310d6671d146101b45780631a252be1146101bc575b5f80fd5b61015e610159366004611bef565b610369565b6040519081526020015b60405180910390f35b61018461017f366004611c2c565b610390565b6040519015158152602001610168565b6101a76101a2366004611c4e565b6103df565b6040516101689190611cb2565b61015e600381565b6101a76101ca366004611bef565b610471565b6101e26101dd366004611e0b565b610522565b005b6101e26101f2366004611c4e565b61053b565b61015e600281565b61021261020d366004611eae565b61071d565b6040516101689190611fa2565b61015e600181565b6101e26107e8565b61024a73833589fcd6edb6e08f4c7c32d4f71b54bda0291381565b6040516001600160a01b039091168152602001610168565b610275610270366004611fb4565b6107fb565b604051610168959493929190611fcd565b6003546001600160a01b031661024a565b6101a76102a5366004611bef565b6108af565b61015e600481565b6101e26102c036600461200c565b6108d2565b6101e26102d3366004612041565b6108e1565b6101846102e63660046120a7565b6001600160a01b039182165f90815260016020908152604080832093909416825291909152205460ff1690565b6101e26101dd3660046120d8565b61015e61032f366004611fb4565b610b58565b6101e2610342366004611fb4565b610bda565b61035a610355366004611fb4565b610c17565b60405161016893929190612190565b5f818152602081815260408083206001600160a01b03861684529091529020545b92915050565b5f6001600160e01b03198216636cdb3d1360e11b14806103c057506001600160e01b031982166303a24d0760e21b145b8061038a57506301ffc9a760e01b6001600160e01b031983161461038a565b6060600280546103ee9061221e565b80601f016020809104026020016040519081016040528092919081815260200182805461041a9061221e565b80156104655780601f1061043c57610100808354040283529160200191610465565b820191905f5260205f20905b81548152906001019060200180831161044857829003601f168201915b50505050509050919050565b6006602052815f5260405f20818154811061048a575f80fd5b905f5260205f20015f915091505080546104a39061221e565b80601f01602080910402602001604051908101604052809291908181526020018280546104cf9061221e565b801561051a5780601f106104f15761010080835404028352916020019161051a565b820191905f5260205f20905b8154815290600101906020018083116104fd57829003601f168201915b505050505081565b604051639cbe235760e01b815260040160405180910390fd5b6001811015801561054d575060048111155b61059e5760405162461bcd60e51b815260206004820152601960248201527f496e76616c696420636f6e747269627574696f6e20747970650000000000000060448201526064015b60405180910390fd5b5f6105a7610e69565b8051602080830191909120335f9081526005835260408082208783529093528290209151929350916105d99190612256565b60405180910390200361063a5760405162461bcd60e51b815260206004820152602360248201527f416c726561647920636f6e74726962757465642074686973207479706520746f60448201526264617960e81b6064820152608401610595565b6106553383600160405180602001604052805f815250610ea4565b335f90815260056020908152604080832085845290915290206106788282612311565b505f61068383610f07565b335f908152600460205260408120805492935083929091906106a69084906123e1565b90915550505f1983016106bd576106bd3383610f4f565b6106c633611006565b335f8181526004602052604090819020805460019091015491517f52002a1946940d25404242413dbc6e3aa29994b872ef6dd2cd1545fc11744239926107109288928892906123f4565b60405180910390a2505050565b6060815183511461074e5781518351604051635b05999160e01b815260048101929092526024820152604401610595565b5f835167ffffffffffffffff81111561076957610769611cc4565b604051908082528060200260200182016040528015610792578160200160208202803683370190505b5090505f5b84518110156107e0576020808202860101516107bb90602080840287010151610369565b8282815181106107cd576107cd61241f565b6020908102919091010152600101610797565b509392505050565b6107f06113d8565b6107f95f611405565b565b60046020525f9081526040902080546001820154600283018054929391926108229061221e565b80601f016020809104026020016040519081016040528092919081815260200182805461084e9061221e565b80156108995780601f1061087057610100808354040283529160200191610899565b820191905f5260205f20905b81548152906001019060200180831161087c57829003601f168201915b5050505050908060030154908060040154905085565b600560209081525f9283526040808420909152908252902080546104a39061221e565b6108dd338383611456565b5050565b5f82116109215760405162461bcd60e51b815260206004820152600e60248201526d4d7573742073656e64205553444360901b6044820152606401610595565b336001600160a01b0384160361096f5760405162461bcd60e51b815260206004820152601360248201527221b0b73737ba103a34b8103cb7bab939b2b63360691b6044820152606401610595565b604051636eb1769f60e11b81523360048201523060248201525f9073833589fcd6edb6e08f4c7c32d4f71b54bda029139063dd62ed3e90604401602060405180830381865afa1580156109c4573d5f803e3d5ffd5b505050506040513d601f19601f820116820180604052508101906109e89190612433565b905082811015610a0b5760405163e2822ff160e01b815260040160405180910390fd5b6040516323b872dd60e01b81523360048201526001600160a01b0385166024820152604481018490525f9073833589fcd6edb6e08f4c7c32d4f71b54bda02913906323b872dd906064016020604051808303815f875af1158015610a71573d5f803e3d5ffd5b505050506040513d601f19601f82011682018060405250810190610a95919061244a565b905080610ab55760405163a55b288760e01b815260040160405180910390fd5b335f9081526004602081905260408220018054869290610ad69084906123e1565b90915550506001600160a01b0385165f9081526004602052604081206003018054869290610b059084906123e1565b90915550506040516001600160a01b0386169033907f47699a4a144a6ecb85d9f1d3f809cbb382de4ad771c46d73422dd419cebec46590610b499088908890612465565b60405180910390a35050505050565b604051636eb1769f60e11b81526001600160a01b03821660048201523060248201525f9073833589fcd6edb6e08f4c7c32d4f71b54bda029139063dd62ed3e90604401602060405180830381865afa158015610bb6573d5f803e3d5ffd5b505050506040513d601f19601f8201168201806040525081019061038a9190612433565b610be26113d8565b6001600160a01b038116610c0b57604051631e4fbdf760e01b81525f6004820152602401610595565b610c1481611405565b50565b610c1f611bb6565b610c4d6040518060a001604052805f81526020015f8152602001606081526020015f81526020015f81525090565b60606040518060800160405280610c65866001610369565b8152602001610c75866002610369565b8152602001610c85866003610369565b8152602001610c95866004610369565b815250925060045f856001600160a01b03166001600160a01b031681526020019081526020015f206040518060a00160405290815f820154815260200160018201548152602001600282018054610ceb9061221e565b80601f0160208091040260200160405190810160405280929190818152602001828054610d179061221e565b8015610d625780601f10610d3957610100808354040283529160200191610d62565b820191905f5260205f20905b815481529060010190602001808311610d4557829003601f168201915b505050918352505060038201546020808301919091526004909201546040918201526001600160a01b0387165f9081526006835281812080548351818602810186019094528084529496509193919284015b82821015610e5c578382905f5260205f20018054610dd19061221e565b80601f0160208091040260200160405190810160405280929190818152602001828054610dfd9061221e565b8015610e485780601f10610e1f57610100808354040283529160200191610e48565b820191905f5260205f20905b815481529060010190602001808311610e2b57829003601f168201915b505050505081526020019060010190610db4565b5050505090509193909250565b6060610e80610e7b6201518042612491565b6114ea565b604051602001610e9091906124a4565b604051602081830303815290604052905090565b6001600160a01b038416610ecd57604051632bfa23e760e11b81525f6004820152602401610595565b60408051600180825260208201869052818301908152606082018590526080820190925290610eff5f878484876115ef565b505050505050565b5f60018203610f185750600a919050565b60028203610f2857506032919050565b60038203610f3857506014919050565b60048203610f485750600f919050565b505f919050565b5f610f58611642565b90505f60045f856001600160a01b03166001600160a01b031681526020019081526020015f209050818051906020012081600201604051610f999190612256565b604051809103902003610fc5576001816001015f828254610fba91906123e1565b90915550610ff19050565b82516020840120604051610fdd906002840190612256565b604051809103902014610ff1576001818101555b60028101610fff8482612311565b5050505050565b611011816001610369565b600114801561104b5750611049816040518060400160405280600c81526020016b46697273742053747269646560a01b815250611660565b155b156110f8576001600160a01b0381165f9081526006602090815260408083208054600181018255908452928290208151808301909252600c82526b46697273742053747269646560a01b928201929092529101906110a99082612311565b50806001600160a01b03165f805160206125f78339815191526040516110ef906020808252600c908201526b46697273742053747269646560a01b604082015260600190565b60405180910390a25b6001600160a01b0381165f90815260046020526040902054603211801590611146575061114481604051806040016040528060078152602001661a981021b63ab160c91b815250611660565b155b156111e9576001600160a01b0381165f908152600660209081526040808320805460018101825590845292829020815180830190925260078252661a981021b63ab160c91b9282019290925291019061119f9082612311565b50806001600160a01b03165f805160206125f78339815191526040516111e0906020808252600790820152661a981021b63ab160c91b604082015260600190565b60405180910390a25b6001600160a01b0381165f9081526004602052604090206001015460071180159061123f575061123d816040518060400160405280600c81526020016b2bb2b2b5902bb0b93934b7b960a11b815250611660565b155b156112ec576001600160a01b0381165f9081526006602090815260408083208054600181018255908452928290208151808301909252600c82526b2bb2b2b5902bb0b93934b7b960a11b9282019290925291019061129d9082612311565b50806001600160a01b03165f805160206125f78339815191526040516112e3906020808252600c908201526b2bb2b2b5902bb0b93934b7b960a11b604082015260600190565b60405180910390a25b60056112f9826002610369565b1015801561132f575061132d8160405180604001604052806009815260200168486f7374204865726f60b81b815250611660565b155b15610c14576001600160a01b0381165f90815260066020908152604080832080546001810182559084529282902081518083019092526009825268486f7374204865726f60b81b9282019290925291019061138a9082612311565b50806001600160a01b03165f805160206125f78339815191526040516113cd90602080825260099082015268486f7374204865726f60b81b604082015260600190565b60405180910390a250565b6003546001600160a01b031633146107f95760405163118cdaa760e01b8152336004820152602401610595565b600380546001600160a01b038381166001600160a01b0319831681179093556040519116919082907f8be0079c531659141344cd1fd0a4f28419497f9722a3daafe3b4186f6b6457e0905f90a35050565b6001600160a01b03821661147e5760405162ced3e160e81b81525f6004820152602401610595565b6001600160a01b038381165f81815260016020908152604080832094871680845294825291829020805460ff191686151590811790915591519182527f17307eab39ab6107e8899845ad3d59bd9653f200f220920489ca2b5937696c31910160405180910390a3505050565b6060815f036115105750506040805180820190915260018152600360fc1b602082015290565b815f5b81156115395780611523816124cf565b91506115329050600a83612491565b9150611513565b5f8167ffffffffffffffff81111561155357611553611cc4565b6040519080825280601f01601f19166020018201604052801561157d576020820181803683370190505b5090505b84156115e7576115926001836124e7565b915061159f600a866124fa565b6115aa9060306123e1565b60f81b8183815181106115bf576115bf61241f565b60200101906001600160f81b03191690815f1a9053506115e0600a86612491565b9450611581565b949350505050565b6115fb85858585611796565b6001600160a01b03841615610fff5782513390600103611634576020848101519084015161162d8389898585896119a5565b5050610eff565b610eff818787878787611acf565b6060610e8060016116566201518042612491565b610e7b91906124e7565b6001600160a01b0382165f90815260066020908152604080832080548251818502810185019093528083528493849084015b8282101561173a578382905f5260205f200180546116af9061221e565b80601f01602080910402602001604051908101604052809291908181526020018280546116db9061221e565b80156117265780601f106116fd57610100808354040283529160200191611726565b820191905f5260205f20905b81548152906001019060200180831161170957829003601f168201915b505050505081526020019060010190611692565b5050505090505f5b815181101561178c5783805190602001208282815181106117655761176561241f565b602002602001015180519060200120036117845760019250505061038a565b600101611742565b505f949350505050565b80518251146117c55781518151604051635b05999160e01b815260048101929092526024820152604401610595565b335f5b83518110156118c7576020818102858101820151908501909101516001600160a01b03881615611879575f828152602081815260408083206001600160a01b038c16845290915290205481811015611853576040516303dee4c560e01b81526001600160a01b038a166004820152602481018290526044810183905260648101849052608401610595565b5f838152602081815260408083206001600160a01b038d16845290915290209082900390555b6001600160a01b038716156118bd575f828152602081815260408083206001600160a01b038b168452909152812080548392906118b79084906123e1565b90915550505b50506001016117c8565b5082516001036119475760208301515f906020840151909150856001600160a01b0316876001600160a01b0316846001600160a01b03167fc3d58168c5ae7397731d063d5bbf3d657854427343f4c083240f7aacaa2d0f628585604051611938929190918252602082015260400190565b60405180910390a45050610fff565b836001600160a01b0316856001600160a01b0316826001600160a01b03167f4a39dc06d4c0dbc64b70af90fd698a233a518aa5d07e595d983b8c0526c8f7fb868660405161199692919061250d565b60405180910390a45050505050565b6001600160a01b0384163b15610eff5760405163f23a6e6160e01b81526001600160a01b0385169063f23a6e61906119e9908990899088908890889060040161253a565b6020604051808303815f875af1925050508015611a23575060408051601f3d908101601f19168201909252611a209181019061257e565b60015b611a8a573d808015611a50576040519150601f19603f3d011682016040523d82523d5f602084013e611a55565b606091505b5080515f03611a8257604051632bfa23e760e11b81526001600160a01b0386166004820152602401610595565b805181602001fd5b6001600160e01b0319811663f23a6e6160e01b14611ac657604051632bfa23e760e11b81526001600160a01b0386166004820152602401610595565b50505050505050565b6001600160a01b0384163b15610eff5760405163bc197c8160e01b81526001600160a01b0385169063bc197c8190611b139089908990889088908890600401612599565b6020604051808303815f875af1925050508015611b4d575060408051601f3d908101601f19168201909252611b4a9181019061257e565b60015b611b7a573d808015611a50576040519150601f19603f3d011682016040523d82523d5f602084013e611a55565b6001600160e01b0319811663bc197c8160e01b14611ac657604051632bfa23e760e11b81526001600160a01b0386166004820152602401610595565b60405180608001604052806004906020820280368337509192915050565b80356001600160a01b0381168114611bea575f80fd5b919050565b5f8060408385031215611c00575f80fd5b611c0983611bd4565b946020939093013593505050565b6001600160e01b031981168114610c14575f80fd5b5f60208284031215611c3c575f80fd5b8135611c4781611c17565b9392505050565b5f60208284031215611c5e575f80fd5b5035919050565b5f5b83811015611c7f578181015183820152602001611c67565b50505f910152565b5f8151808452611c9e816020860160208601611c65565b601f01601f19169290920160200192915050565b602081525f611c476020830184611c87565b634e487b7160e01b5f52604160045260245ffd5b604051601f8201601f1916810167ffffffffffffffff81118282101715611d0157611d01611cc4565b604052919050565b5f67ffffffffffffffff821115611d2257611d22611cc4565b5060051b60200190565b5f82601f830112611d3b575f80fd5b81356020611d50611d4b83611d09565b611cd8565b8083825260208201915060208460051b870101935086841115611d71575f80fd5b602086015b84811015611d8d5780358352918301918301611d76565b509695505050505050565b5f67ffffffffffffffff831115611db157611db1611cc4565b611dc4601f8401601f1916602001611cd8565b9050828152838383011115611dd7575f80fd5b828260208301375f602084830101529392505050565b5f82601f830112611dfc575f80fd5b611c4783833560208501611d98565b5f805f805f60a08688031215611e1f575f80fd5b611e2886611bd4565b9450611e3660208701611bd4565b9350604086013567ffffffffffffffff80821115611e52575f80fd5b611e5e89838a01611d2c565b94506060880135915080821115611e73575f80fd5b611e7f89838a01611d2c565b93506080880135915080821115611e94575f80fd5b50611ea188828901611ded565b9150509295509295909350565b5f8060408385031215611ebf575f80fd5b823567ffffffffffffffff80821115611ed6575f80fd5b818501915085601f830112611ee9575f80fd5b81356020611ef9611d4b83611d09565b82815260059290921b84018101918181019089841115611f17575f80fd5b948201945b83861015611f3c57611f2d86611bd4565b82529482019490820190611f1c565b96505086013592505080821115611f51575f80fd5b50611f5e85828601611d2c565b9150509250929050565b5f815180845260208085019450602084015f5b83811015611f9757815187529582019590820190600101611f7b565b509495945050505050565b602081525f611c476020830184611f68565b5f60208284031215611fc4575f80fd5b611c4782611bd4565b85815284602082015260a060408201525f611feb60a0830186611c87565b606083019490945250608001529392505050565b8015158114610c14575f80fd5b5f806040838503121561201d575f80fd5b61202683611bd4565b9150602083013561203681611fff565b809150509250929050565b5f805f60608486031215612053575f80fd5b61205c84611bd4565b925060208401359150604084013567ffffffffffffffff81111561207e575f80fd5b8401601f8101861361208e575f80fd5b61209d86823560208401611d98565b9150509250925092565b5f80604083850312156120b8575f80fd5b6120c183611bd4565b91506120cf60208401611bd4565b90509250929050565b5f805f805f60a086880312156120ec575f80fd5b6120f586611bd4565b945061210360208701611bd4565b93506040860135925060608601359150608086013567ffffffffffffffff81111561212c575f80fd5b611ea188828901611ded565b5f8282518085526020808601955060208260051b840101602086015f5b8481101561218357601f19868403018952612171838351611c87565b98840198925090830190600101612155565b5090979650505050505050565b5f8185825b60048110156121b4578151835260209283019290910190600101612195565b50505060c06080830152835160c0830152602084015160e0830152604084015160a06101008401526121ea610160840182611c87565b90506060850151610120840152608085015161014084015282810360a08401526122148185612138565b9695505050505050565b600181811c9082168061223257607f821691505b60208210810361225057634e487b7160e01b5f52602260045260245ffd5b50919050565b5f8083546122638161221e565b6001828116801561227b5760018114612290576122bc565b60ff19841687528215158302870194506122bc565b875f526020805f205f5b858110156122b35781548a82015290840190820161229a565b50505082870194505b50929695505050505050565b601f82111561230c57805f5260205f20601f840160051c810160208510156122ed5750805b601f840160051c820191505b81811015610fff575f81556001016122f9565b505050565b815167ffffffffffffffff81111561232b5761232b611cc4565b61233f81612339845461221e565b846122c8565b602080601f831160018114612372575f841561235b5750858301515b5f19600386901b1c1916600185901b178555610eff565b5f85815260208120601f198616915b828110156123a057888601518255948401946001909101908401612381565b50858210156123bd57878501515f19600388901b60f8161c191681555b5050505050600190811b01905550565b634e487b7160e01b5f52601160045260245ffd5b8082018082111561038a5761038a6123cd565b848152608060208201525f61240c6080830186611c87565b6040830194909452506060015292915050565b634e487b7160e01b5f52603260045260245ffd5b5f60208284031215612443575f80fd5b5051919050565b5f6020828403121561245a575f80fd5b8151611c4781611fff565b828152604060208201525f6115e76040830184611c87565b634e487b7160e01b5f52601260045260245ffd5b5f8261249f5761249f61247d565b500490565b636461792d60e01b81525f82516124c2816004850160208701611c65565b9190910160040192915050565b5f600182016124e0576124e06123cd565b5060010190565b8181038181111561038a5761038a6123cd565b5f826125085761250861247d565b500690565b604081525f61251f6040830185611f68565b82810360208401526125318185611f68565b95945050505050565b6001600160a01b03868116825285166020820152604081018490526060810183905260a0608082018190525f9061257390830184611c87565b979650505050505050565b5f6020828403121561258e575f80fd5b8151611c4781611c17565b6001600160a01b0386811682528516602082015260a0604082018190525f906125c490830186611f68565b82810360608401526125d68186611f68565b905082810360808401526125ea8185611c87565b9897505050505050505056febda58b9191c367b3dbd0004fb87588e75ffe6eb605e01b550d775b9c7df8f830a26469706673582212202df52d6e90831e4eda6b0fa0bbd9d632a39e7523117d67bb47cf5bea701a4f1f64736f6c6343000818003368747470733a2f2f72756e2d62617365642e76657263656c2e6170702f6170692f6d657461646174612f7b69647d","linkReferences":{}},"methodIdentifiers":{"ATTEND()":"57e1d9b0","HOST()":"49f289dc","PACE()":"10d6671d","SUPPLIES()":"9c694a73","USDC()":"89a30271","balanceOf(address,uint256)":"00fdd58e","balanceOfBatch(address[],uint256[])":"4e1273f4","getUSDCAllowance(address)":"f2f69a90","getUserData(address)":"ffc9896b","isApprovedForAll(address,address)":"e985e9c5","lastContribution(address,uint256)":"97c10577","makeContribution(uint256)":"360a2bcb","owner()":"8da5cb5b","renounceOwnership()":"715018a6","safeBatchTransferFrom(address,address,uint256[],uint256[],bytes)":"2eb2c2d6","safeTransferFrom(address,address,uint256,uint256,bytes)":"f242432a","setApprovalForAll(address,bool)":"a22cb465","supportsInterface(bytes4)":"01ffc9a7","tipContributorUSDC(address,uint256,string)":"e288c417","transferOwnership(address)":"f2fde38b","unlockedBadges(address,uint256)":"1a252be1","uri(uint256)":"0e89341c","userStats(address)":"8a65d874"},"id":29}